:020000040800F2
:100000000050002021020008270200082B020008EF
:1000100043020008470200085F02000800000000D9
:10002000000000000000000000000000770200084F
:100030007B020008000000007F0200088302000825
:100040009102000891020008910200089102000844
:100050009102000891020008910200089102000834
:100060009102000891020008910200089102000824
:100070009102000891020008910200089102000814
:100080009102000891020008910200089102000804
:1000900091020008910200089102000891020008F4
:1000A00091020008910200089102000891020008E4
:1000B00091020008910200089102000891020008D4
:1000C00091020008910200089102000891020008C4
:1000D00091020008910200089102000891020008B4
:1000E000910200089102000891020008000000003F
:1000F0000000000000000000000000000000000000
:1001000000000000000000005FF808F100B583B0B7
:1001100000F0DEF8304B314A1360314A1360314B46
:10012000314A32498B4204D21168196004330432D7
:10013000F7E72A4B1A682E4B9A4200D0FEE7284B6D
:100140001A682C4B9A42F9D1234B2B4A13602B4A45
:1001500013602B4B02E000221A600433294A9342B9
:10016000F9D3254B1B6813B9244B1B6803B1FEE779
:1001700000F0BAF8694601A800F0A2F8224C234B1F
:10018000E41AA4100025AC4214DC214C214BE41AE3
:10019000A4100025AC4213DC0099019800F066FA27
:1001A00005461D4C1D4BE41AA410002C0EDC2846FD
:1001B00000F084F8154B53F8253098470135E2E7F5
:1001C000144B53F8253098470135E3E7013C134BB6
:1001D00053F824309847E8E7BABADECA0000002096
:1001E0002000002000000020E80600082400002075
:1001F0007856341232547698240000202C000020C7
:100200002400002030000020BC020008BC020008CE
:10021000BC020008BC020008BC020008BC020008C6
:1002200008B5FFF773FF00BEFEE71EF0040F0CBF1A
:10023000EFF30880EFF309807146124A104700BEC1
:10024000FEE700BEFEE71EF0040F0CBFEFF30880D0
:10025000EFF3098071460C4A104700BEFEE71EF01E
:10026000040F0CBFEFF30880EFF309807146074AD3
:10027000104700BEFEE700BEFEE700BEFEE700BE80
:10028000FEE770473F0200085B02000873020008A7
:0402900000BEFEE7C7
:10029400E80600080000002024000020E80600080A
:1002A40000000000000000002400002030000020B6
:0802B400000000000000000042
:1002BC00FEE7000001230360014B0B60704700BF99
:1002CC000400002008B500F073F8024A024B9A6053
:1002DC0008BD00BF0000000800ED00E008B500F00C
:1002EC008FF808BD82B00023019300932C4A136849
:1002FC0043F4803313602A4B1B6803F400330093E0
:10030C00019B01330193009B1BB9019BB3F5A06FBB
:10031C00F1D1234B1B6813F4003F06D0012300934B
:10032C00009B012B04D002B0704700230093F7E729
:10033C001C4B1A6842F010021A601A6822F0030271
:10034C001A601A6842F002021A60A3F580535A68C8
:10035C005A605A685A605A6842F480625A605A6805
:10036C0022F47C125A605A6842F4E8125A601A68F5
:10037C0042F080721A600A4B1B6813F0007FFAD0AF
:10038C00074B5A6822F003025A605A6842F0020284
:10039C005A60034B5B6803F00C03082BF9D1C2E7DE
:1003AC00001002400020024008B5FFF79BFF08BD7B
:1003BC0008B5104B1A6842F001021A6059680E4ACF
:1003CC000A405A601A6822F0847222F480321A6051
:1003DC001A6822F480221A605A6822F4FE025A60CB
:1003EC004FF41F029A60FFF7DFFF044B4FF00062DF
:1003FC009A6008BD001002400000FFF800ED00E01C
:10040C001F4B5B6803F00C03042B15D0082B17D083
:10041C001BB11C4B1C4A1A6002E01A4B1A4A1A6098
:10042C00174B5B68C3F30313184AD35CDAB2154954
:10043C000B68D3400B607047124B134A1A60EFE7FE
:10044C000F4A53685268C3F38343023312F4803F5C
:10045C000AD00B4A526812F4003F0BD00C4A02FB34
:10046C0003F3084A1360DBE7094A02FB03F3054A6E
:10047C001360D5E7044A02FB03F3024A1360CFE78B
:10048C00001002401C00002000127A000C0000201A
:10049C0000093D00002860D170B407292DD88800D0
:1004AC00C0B22E4C25680F26864025EA060525602D
:1004BC00256802FA00F6354325601AB99A1ED2B2A5
:1004CC00012A0AD9254C2268023003FA00F01043A5
:1004DC002060022B08D070BC70472268851C02205B
:1004EC00A84002432260F4E71D4A136801F03F0064
:1004FC000121814019431160EDE73831C9B2880000
:10050C00C0B2184C25680F26864025EA06052560E2
:10051C00256802FA00F6354325601AB99A1ED2B244
:10052C00012A13D90F4C2268023003FA00F0104351
:10053C002060022BCFD10A48036801F03F0108313B
:10054C00012202FA01F119430160C4E72268851CFB
:10055C000220A84002432260EBE7704700080140EC
:10056C000C0801400408014010B4064B1868012423
:10057C008C4020EA0400186018688A4002431A6014
:10058C0010BC70470C080140024B1868C84000F0C2
:10059C000100704708080140084A136843F0010342
:1005AC001360074B01221A601A6842F0A0021A600D
:1005BC001A681A601A681A60704700BF001002406F
:1005CC000410024001280BD010B1022810D0704743
:1005DC000B480368012202FA01F1194301607047CC
:1005EC0008480368012202FA01F1194301607047BF
:1005FC0005480368012202FA01F1194301607047B2
:10060C0014100240181002401C100240002301E09C
:10061C0000BF013342F20F729342F9D9704710B503
:10062C00002408E0012221460020FFF79DFFFFF780
:10063C00EDFF0134E4B2072CF4D910BD07210029D9
:10064C000DDB10B5CCB2002221461046FFF78CFF13
:10065C00FFF7DCFF611E49B20029F3DA10BD7047C9
:10066C0010B5FFF799FF02210120FFF7ABFF002423
:10067C00072C0CD90223002208211046FFF70AFF91
:10068C000223002209211046FFF704FF0DE000238E
:10069C00022221461846FFF7FDFE0134E4B2E7E7DB
:1006AC0009210020FFF770FF70B108210020FFF72F
:1006BC006BFF0028F4D100210846FFF765FF0028E6
:1006CC00EED1FFF7ACFFEBE700210846FFF75CFF2C
:0A06DC000128EAD1FFF7B2FFE7E7BB
:1006E80078563412280000200000000000000000A6
:1006F80000000000010203040607080900A24A04DA
:040708003254769859
:040000050800010DE1
:00000001FF
